:101D800001C020C111248FE594E09EBF8DBF84B7B0
:101D9000882371F0982F9A70923051F081FF02C021
:101DA00097EF94BF282E80E0FAD0EFE0FF27099448
:101DB00085E08EBD82E08BB988E18AB986E880BD76
:101DC00080E189B98EE0EBD0BD9A86E020E33CEF5C
:101DD00044E050E23DBD2CBD48BF08B602FEFDCF39
:101DE00098B3952798BBA8955F9902C0815091F749
:101DF00023E0D22ECC24C39435E0932E41E1842EEF
:101E00005FEBE52E5EE0F52E8F2D806C782EC0D036
:101E1000813471F4BDD0182FC6D081E0123821F082
:101E200088E0113809F083E0AFD080E1ADD0EFCF8A
:101E3000823419F484E1BFD0F8CF853411F485E001
:101E4000FACF853541F4A4D0C82FA2D0D82FCC0F1B
:101E5000DD1FA9D0EACF863521F484E0ACD080E044
:101E6000E3CF843609F058C093D092D0682E90D03A
:101E7000582E00E610E080E6482E460C58010F5F11
:101E80001F4F86D0F50180834012F8CF8CD0209769
:101E9000F9F4909160009093E40080916100809348
:101EA000E500E09260007092610040917E004093F6
:101EB000E60040917F004093E700292F382F2F50F4
:101EC000310920937E00832F8F70806C80937F0078
:101ED000F5E45F1201C0FFCFFE01D7BEE89507B65B
:101EE00000FCFDCF90E080E0FC01EC0FFD1FDC0169
:101EF000A05ABF4F2D913C910901C7BEE89511240E
:101F000002966812F1CFFE0197BEE89507B600FC75
:101F1000FDCF87BEE89589CF843739F539D038D0E1
:101F2000B82E36D040D08E01BC0E0115110541F4FB
:101F30008091E40029D00F5F1F4FB012F6CF75CF0C
:101F40000130110519F48091E500F4CF0E3111052F
:101F500019F48091E600EECF0F31110519F480914C
:101F6000E700E8CFF8018491E5CF853739F41BD03D
:101F70008EE10AD083E908D087E056CF813509F099
:101F800068CF88E00CD065CF5D9BFECF8CB90895FB
:101F90005F99FECF5C9901C0A8958CB1089598E136
:101FA00091BD81BD0895F4DF803219F088E0F7DF3C
:101FB000FFCF84E1E9CFCF93C82FEADFC150E9F723
:101FC000CF91F1CFFC010A0167BFE895112407B654
:101FD00000FCFDCF667029F0452B19F481E187BF25
:041FE000E8950895E3
:021FFE000108D8
:0400000300001D805C
:00000001FF
