:103C000001C0E7C0112484B7882361F0982F9A700F
:103C1000923041F081FF02C097EF94BF282E80E0E0
:103C2000C3D0EEC182E08093C00088E18093C100E0
:103C300086E08093C20088E08093C4008EE0B4D018
:103C400023E0D22ECC24C39435E0B32E41E1A42E40
:103C50009FD0813471F49CD0182FACD081E0123801
:103C600021F088E0113809F083E08BD080E189D021
:103C7000EFCF823419F484E1A5D0F8CF853411F464
:103C800085E0FACF853541F483D0C82F81D0D82F75
:103C9000CC0FDD1F8FD0EACF863521F484E092D09F
:103CA00080E0E3CF843609F041C072D071D0982E05
:103CB0006FD0882EE12CFF24F39487018FEFE81A50
:103CC000F80A66D0F80180839E10F7CF73D07E018A
:103CD000F5E48F120EC000E011E008C0F801619118
:103CE0008F01C7018ED0FFEFEF1AFF0A9012F6CFB7
:103CF000BDCFFE01D7BEE89507B600FCFDCFFE01A3
:103D000080E091E0DC0102962D913C910901C7BE53
:103D1000E895112432969812F5CFFE01B7BEE895CA
:103D200007B600FCFDCFA7BEE895A0CF8437D1F43D
:103D30002FD02ED0182F2CD0082F3CD07E01053448
:103D400051F41C0FC70155D01CD08FEFE81AF80AA8
:103D50001E11F8CF8BCFF70185917F0112D0115042
:103D6000D1F784CF853739F425D08EE10AD084E9A4
:103D700008D08BE07ACF813509F08CCF88E014D061
:103D800089CF9091C00095FFFCCF8093C600089525
:103D90008091C00087FDFCCF8091C00084FD01C0F0
:103DA000A8958091C6000895E0E6F0E098E1908340
:103DB00080830895EDDF803219F088E0F5DFFFCFD2
:103DC00084E1DFCFCF93C82FE3DFC150E9F7CF9174
:103DD000F1CFFC010A0167BFE895112407B600FC8A
:103DE000FDCF667029F0452B19F481E187BFE89576
:103DF0000895F999FECF92BD81BDF89A992780B5B3
:103E00000895262FF999FECF1FBA92BD81BD20BD1E
:103E10000FB6F894FA9AF99A0FBE0196089556656E
:103E20007273696F6E3D382E31004F505449424FC6
:103E30004F545F435553544F4D5645523D30004407
:103E400065766963653D61746D65676131363870AB
:103E500000465F4350553D383030303030304C00F4
:103E6000424947424F4F543D31004275696C743AA4
:103E70004A616E20313020323032313A31363A30B8
:103E8000373A313600554152543D30004241554495
:103E90005F524154453D3131353230304C004C4554
:063EA000443D4235000024
:023FFE000108B8
:0400000300003C00BD
:00000001FF
