:1038000011E0A0E0B1E0E8EBFEE302C005900D920C
:10381000A230B107D9F721E0A2E0B1E001C01D92CA
:10382000A834B207E1F701C0FDC000D00F92CDB7B8
:10383000DEB7112484B7882361F0982F9A709230F4
:1038400041F081FF02C097EF94BF282E80E0E4D0C2
:10385000D7C382E08093C00088E18093C10086E0F6
:103860008093C20088E08093C40084B1886284B9E8
:103870002498229A1CBC80E58CBDFF24F394FDBCE7
:103880008DB58EB542D1892B91F4F092460190E02E
:1038900080E0B8D2898381E090E0B4D28A8382E06C
:1038A00090E0B0D28B83CE01019657D164D18EE0E7
:1038B000B3D033E0B32EAA24A39445E0942E51E173
:1038C000852EADD1813489F4AAD1F82E8CD282E82C
:1038D000F81205C081E059D280E157D2F2CFE1E879
:1038E00088E0FE16C1F383E0F6CF823419F484E158
:1038F00082D2F2CF853411F485E0FACF853541F4D8
:103900008ED1082F8CD1182F000F111F6CD2E4CF4D
:10391000863521F484E06FD280E0DDCF843609F073
:1039200042C07DD17CD1782E7AD1682EC12CDD2485
:10393000D3947601FFEFCF1ADF0A71D1F7018083AC
:103940007C10F7CF50D26801F5E46F120FC0E12C64
:10395000FF24F39408C0F70161917F01C6015AD298
:10396000FFEFCF1ADF0A7E10F6CFB6CFF801B7BE51
:10397000E89507B600FCFDCFF80180E091E0DC019E
:1039800002962D913C910901A7BEE895112432962B
:103990007812F5CFF80197BEE89507B600FCFDCF89
:1039A00087BEE89599CF8437E1F439D138D1F82E24
:1039B00036D1E82E18D26801F5E4EF120AC0F00EF5
:1039C000C60120D2E2D18FEFC81AD80AFC10F8CF76
:1039D00083CFF60185916F01D8D1FA94F110F9CF18
:1039E0007BCF853739F4FFD18EE1CFD184E9CDD1BA
:1039F0008BE071CF813509F089CF88E00DD086CF7B
:103A00008EBD8FEF81500DB407FC02C08111FACF3B
:103A10008EB508952A9A0895E0E6F0E098E1908343
:103A200080830895FC010A0167BFE895112407B659
:103A300000FCFDCF667029F0452B19F481E187BFAA
:103A4000E89508958111E6CF2A980895009709F422
:103A500008950000000000000000000000000000C9
:103A6000A8950197F3CF882329F08AE090E0EEDF54
:103A7000299A089588EC90E0E9DF29980895CF937A
:103A8000C82F80E0DFDF8C2FBBDF80E0B9DFC82FDD
:103A9000C1DF8C2FCF910895CF93DF93D82FC62FFE
:103AA00080E0D0DF8D2F8062ABDF8C2FA9DFDF912C
:103AB000CF91B0CFCF9380E0C5DF8FEFA1DFC82FCC
:103AC000A9DF8C2FCF9108951F93CF93DF93182FE9
:103AD000EB0180E0B7DF812F806292DF888190DF89
:103AE00089818EDF8A818CDFDF91CF911F9192CF08
:103AF000CF9380E0A7DF81EE83DFC82F8BDF8C2F91
:103B0000CF91089588E893E1A1CF219A229A80E08D
:103B1000AADF80DFF7DF6FE784E0BEDF84E0AFDF9E
:103B20008F37C1F466E286E0B7DF63E08CE1B4DF93
:103B300064E08DE1B1DF60E787E0AEDF6AE285E057
:103B4000ABDF61E083E0A8DF63E081E0A5DF90E028
:103B500080E0089581E090E00895BC018BE0B4CF4F
:103B6000CF93DF93EC01BC0180E1AEDFBE018AE0C0
:103B7000DF91CF91A9CF8091450181110AC06FE7F4
:103B80008BDF62E082E088DF81E06DDF81E080939F
:103B900045010895CF93C82F80914501882359F09E
:103BA00080E061DFC11103C06CE780E075DF109237
:103BB0004501CF910895CC23B9F36EE7F6CF87E1A5
:103BC0005EDF809581700895CF9380E03BDF80E6D3
:103BD00017DF80E015DFC82F1DDF8C2FCF910895F0
:103BE000EF92FF921F93CF93DF93EC017B0160E490
:103BF00087E052DFE9DF182FF701808380E022DFC2
:103C000081E6FEDE1C0F1C1306C0DF91CF911F91D1
:103C1000FF90EF90FFCE80E0F3DE8993F4CFCF9357
:103C2000DF93C1E0D5E080914601811101C0FFCF53
:103C3000809123018823B9F0A895809123018823DE
:103C4000B1F0E091020181E08E0F80930201F0E07B
:103C5000ED5FFE4F8091230181508093230180818D
:103C6000DF91CF910895ABDF8111E6CFDCCF63E226
:103C700071E083E091E0B4DFC093020180914701DD
:103C8000811114C0809123018430F0F083E091E031
:103C900067DF8091060180930101809123018450A8
:103CA00080932301D0930201C093470180912301A7
:103CB000882309F4B8CF9091030120910001921359
:103CC00006C010922301AFCF10922301EFCF909343
:103CD0000001815080932301B4CF1F93CF93DF93D2
:103CE000EC01162F80914501882329F081E052DFF5
:103CF00081E0809345016EE780E0CEDE61E082E006
:103D0000CBDEF6DE80E09EDE80EA7ADE1C0F1C133E
:103D100006C080DE81E0DF91CF911F91A4CE899112
:103D20006FDEF5CF0F931F93CF93DF93C3DEC82FC2
:103D300080E099DE00E117E2DC2FD072C5FF1AC0E7
:103D4000C0FD18C060E387E0A7DE809145018823AD
:103D500019F0109245010FDF81E090E0DD2311F0B2
:103D600090E080E0919581959109DF91CF911F912D
:103D70000F910895C4FDE6CF0150110919F388E4AD
:103D800098EE64DE97DEC82FD7CFCF93DF93909164
:103D90004701992329F1E0914401D1E0DE0FD0934E
:103DA0004401F0E0EC5DFE4F8083803121F0809192
:103DB0000101D81315C0C0E8C15051F080EA9FE05E
:103DC00045DE6D2F84E291E088DFACDF892BA1F71F
:103DD00081E080934401809124018F5F80932401CE
:103DE000DF91CF9108951BDF803219F088E014DE57
:103DF000FFCF84E1CACFCF93C82F11DFC150E9F7BD
:103E0000CF91F1CFF999FECF92BD81BDF89A992754
:103E100080B50895262FF999FECF1FBA92BD81BDB6
:103E200020BD0FB6F894FA9AF99A0FBE019608953C
:103E300056657273696F6E3D382E31004F5054498C
:103E4000424F4F545F435553544F4D5645523D30AA
:103E5000004465766963653D61746D6567613136FF
:103E6000387000465F4350553D3830303030303088
:103E70004C00424947424F4F543D31004275696CF6
:103E8000743A4A616E20313020323032313A313763
:103E90003A33313A313700554152543D30004241B6
:103EA00055445F524154453D3131353230304C003C
:083EB0004C45443D4235000081
:023EB800FF20E9
:023FFE000108B8
:0400000300003800C1
:00000001FF
